:1000000062EF04F00000000000EF00F000000000CC
:0A0010000000000000000000F3D71C
:10001C00086A096A100E0C6E013408360936045051
:10002C00085E0550D8A0053C095ED8B007D0045036
:10003C0008260550D8B0053C0926D8900036013664
:06004C000C2EEAD71200A1
:10005200010E02016D6F6D516B25E96E000E6C2170
:10006200EA6EEE5202E06D2BF6D76DC200F0000E82
:04007200016E120009
:1000760002016F6B050E6F5D0AE26F516D25E16E31
:10008600000E6E21E26E200EE66E6F2BF3D76F51D7
:100096006D25E16E000E6E21E26EE66A6F076F5106
:1000A6006D25706F000E6E21716F0A0E046E000EC4
:1000B600056E6BC200F06CC201F0ADDF08C000F047
:1000C60009C001F0300E002670C2E1FF71C2E2FFE6
:1000D60000C0E6FF0A0E046E000E056E6BC200F04D
:1000E6006CC201F098DF00C06BF201C06CF2000E2A
:1000F600011802E1000E001801E102D06F07CFD708
:020106001200E5
:100108000201636B646B61C203F062C204F061C2F6
:1001180005F062C206F003C0E9FF04C0EAFFEE5032
:10012800200A04E16351641101E110D0010E636FEC
:10013800000E646F03C0E9FF04C0EAFF05C0E1FFD9
:1001480006C0E2FFEECFE6FF054A062A03C001F02B
:1001580004C002F0034A042A01C0E9FF02C0EAFF12
:10016800EE50000AD8E161C200F062C201F012004C
:100178000201676B686B61C269F262C26AF2800E43
:100188006219006E800E005C02E1000E615D0BE2F8
:10019800010E676F000E686F61510008696F62C2D7
:1001A8006AF2000E6A5769C26BF26AC26CF263C2E5
:1001B8006DF264C26EF25BDF060E656F000E666F4D
:1001C800000E006E6651005C02E16551000819E2FC
:1001D80065516325E16E66516421E26E010E655D2D
:1001E800006E000E6659016E00506325E96E0150DD
:1001F8006421EA6EEECFE6FF010E655F000E665BD6
:10020800DFD763C2E1FF64C2E2FF200EE66E6751EA
:1002180068111AE0656B666B65516325E96E665176
:100228006421EA6EEE50200A03E1654B662BF4D791
:10023800010E655F000E665B65516325E16E6651D0
:0A0248006421E26E2D0EE66E120036
:0E025200ACB202D00000FCD761C2ADFF1200BA
:1002600061C204F062C205F004C0E9FF05C0EAFF04
:10027000EE5203E0044A052AF7D7020165516611E0
:1002800021E004C002F005C003F0044A052A63C25D
:1002900000F064C201F0634B642B00C0E9FF01C0B1
:1002A000EAFF02C0E1FF03C0E2FFEECFE6FF02C0BB
:1002B000E9FF03C0EAFFEE5205E0010E655F000EA4
:1002C000665BDBD7000E661902E1000E651905E1D9
:1002D00004C0E1FF05C0E2FFE66A61C200F062C24D
:0402E00001F0120017
:0C02E40072B201D0FDD761C273FF12009E
:1002F00061C26BF262C26CF2ACDE00C065F263C236
:100300006BF264C26CF2A5DE00C066F2676B6651E8
:10031000000A17E067516525006E016A000E012290
:1003200000506125E16E01506221E26E6751632544
:10033000E96E000E6421EA6EEECFE6FF6607672BDA
:10034000E6D767516525006E016A000E0122005054
:100350006125E16E01506221E26EE66A61C200F041
:0603600062C201F0120070
:10036600520E0201286F020E296F610E2A6F020ECD
:100376002B6FFF0E346FFF0E356F000E366F000EBB
:10038600376FFF0E306FFF0E316F000E326F000EAB
:10039600336FFF0E2C6FFF0E2D6F000E2E6F000EAB
:1003A6002F6FAC8A900EAB6E948E949C9EAA03D04F
:0803B600AECF00F0FBD71200EE
:1003BE0002014F6B4CC2E9FF4DC2EAFFEECF4EF287
:1003CE004E51000A0EE04EC261F285DF02014F2B44
:1003DE004F514C25E96E000E4D21EA6EEECF4EF2D6
:0403EE00EFD7120033
:1003F2004CC26BF24DC26CF22BDE00C050F24EC208
:100402006BF24FC26CF224DE00C051F2526B5151BA
:10041200000A17E052515025006E016A000E0122B7
:1004220000504C25E16E01504D21E26E52514E2595
:10043200E96E000E4F21EA6EEECFE6FF5107522B16
:10044200E6D752515025006E016A000E012200507B
:100452004C25E16E01504D21E26EE66A4CC200F07D
:060462004DC201F0120082
:10046800E40E0201286F020E296F610E2A6F020E38
:100478002B6FFF0E346FFF0E356F000E366F000EB8
:10048800376FFF0E306FFF0E316F000E326F000EA8
:10049800336FFF0E2C6FFF0E2D6F000E2E6F000EA8
:1004A8002F6F728A900E716E958E959CA4AA03D0B8
:0804B80074CF00F0FBD7120025
:1004C000790E02015F6F010E606F4EC261F24FC282
:1004D00062F2580E636F020E646F4EDE580E616F4B
:1004E000020E626F11DE00C052F201C053F252C21E
:1004F0006BF253C26CF2ADDD00C051F24CC261F23E
:100500004DC262F252C263F253C264F251C265F24A
:10051000000E666FA5DE00C054F201C055F25051C6
:10052000010A12E154C261F255C262F25FC263F283
:1005300060C264F2DDDE00C056F201C057F256C25E
:1005400000F057C201F004D054C200F055C201F0CF
:02055000120097
:1005520002014F6B4CC2E9FF4DC2EAFFEECF4EF2F1
:100562004E51000A0EE04EC261F272DE02014F2BC2
:100572004F514C25E96E000E4D21EA6EEECF4EF240
:04058200EFD712009D
:100586000F01396B3A6B3B6B3C6B606A936A1200E6
:100596000900F5CFE6FF0006FBE10106F9E11200CE
:1005A600020E0B6E040E0C6EBA0E0D6E0D2EFED7DD
:1005B6000C2EFCD70B2EFAD70000B886010EB06EB3
:1005C600A00EAF6EAC84CCDE7086010E766EA00EE9
:1005D600756E728446DF640E4C6F000E4D6FB6DF8B
:1005E600150E0B6E4B0E0C6EBE0E0D6E0D2EFED73F
:1005F6000C2EFCD70B2EFAD70000560E4C6F000EB1
:100606004D6FA4DF150E0B6E4B0E0C6EBE0E0D6EEF
:100616000D2EFED70C2EFCD70B2EFAD7000012009B
:10062600010E0201446F000E456F040E426F000E6C
:10063600436F040E406F000E416F040E266F000ECE
:10064600276F040E246F000E256F430E226F000ED7
:10065600236F22C261F223C262F23B0E636F000E69
:10066600646F43DE00C022F201C023F2020E0B6E5D
:10067600040E0C6EBA0E0D6E0D2EFED70C2EFCD788
:100686000B2EFAD7000022C24CF223C24DF244C20E
:100696004EF245C24FF2506B10DF00C022F201C08D
:1006A60023F2020E0B6E040E0C6EBA0E0D6E0D2E9C
:1006B600FED70C2EFCD70B2EFAD7000022C261F211
:1006C60023C262F2340E636F000E646F0EDE00C04A
:1006D60022F201C023F2020E0B6E040E0C6EBA0E4D
:1006E6000D6E0D2EFED70C2EFCD70B2EFAD7000062
:1006F60022C24CF223C24DF242C24EF243C24FF224
:10070600506BDBDE00C022F201C023F2020E0B6E3C
:10071600040E0C6EBA0E0D6E0D2EFED70C2EFCD7E7
:100726000B2EFAD7000022C261F223C262F22F0E0C
:10073600636F000E646FD9DD00C022F201C023F2A0
:10074600020E0B6E040E0C6EBA0E0D6E0D2EFED73B
:100756000C2EFCD70B2EFAD7000022C24CF223C275
:100766004DF240C24EF241C24FF2506BA6DE00C0BF
:1007760022F201C023F2020E0B6E040E0C6EBA0EAC
:100786000D6E0D2EFED70C2EFCD70B2EFAD70000C1
:1007960022C261F223C262F2220E636F000E646F00
:1007A600A4DD00C022F201C023F2020E0B6E040E7D
:1007B6000C6EBA0E0D6E0D2EFED70C2EFCD70B2E20
:1007C600FAD7000022C24CF223C24DF226C24EF2E4
:1007D60027C24FF2506B71DE00C022F201C023F235
:1007E600020E0B6E040E0C6EBA0E0D6E0D2EFED79B
:1007F6000C2EFCD70B2EFAD7000022C261F223C2C0
:1008060062F2170E636F000E646F6FDD00C022F296
:1008160001C023F2020E0B6E040E0C6EBA0E0D6EA4
:100826000D2EFED70C2EFCD70B2EFAD7000022C2B7
:100836004CF223C24DF224C24EF225C24FF2506B47
:100846003CDE00C022F201C023F2020E0B6E040E43
:100856000C6EBA0E0D6E0D2EFED70C2EFCD70B2E7F
:10086600FAD7000022C26BF223C26CF229EC00F028
:10087600040E005C156E000E0158166E15C000F0D1
:0608860016C001F0120093
:10088C002C0E02014A6F000E4B6F4AC24CF24BC247
:10089C004DF28FDD46C24CF247C24DF24AC24EF2C7
:1008AC004BC24FF2A0DD00C048F201C049F248C271
:0808BC0000F049C201F0120036
:1008C400FDEC05F05EDE6DDEACDE00C015F001C0AF
:1008D40016F0020E0B6E040E0C6EBA0E0D6E0D2E7B
:1008E400FED70C2EFCD70B2EFAD700002AC04CF2F0
:1008F4002BC04DF215C04EF216C04FF2506BDEDD28
:1009040000C020F201C021F2020E0B6E040E0C6E28
:10091400BA0E0D6E0D2EFED70C2EFCD70B2EFAD769
:10092400000020C24CF221C24DF247DD20C261F228
:1009340021C262F222C263F223C264F2D7DC00C095
:1009440020F201C021F250D00D2EFED70C2EFCD780
:100954000B2EFAD700003D0E4C6F010E4D6FF7DDE4
:10096400150E0B6E4B0E0C6EBE0E0D6E0D2EFED7BD
:100974000C2EFCD70B2EFAD700006B0E3A6F000E2C
:100984003B6F3AC26BF23BC26CF229EC00F000C040
:100994003EF201C03FF26B0E4C6F010E4D6F3EC232
:1009A4004EF23FC24FF2506B89DD00C03CF201C0F1
:1009B4003DF23CC246F23DC247F266DF00C038F267
:1009C40001C039F238C24CF239C24DF2C0DD150E05
:1009D4000B6E4B0E0C6EBE0E0D6E0D2EFED70C2E36
:0A09E400FCD70B2EFAD70000FFD756
:100BFA0010EE15F00B0E006E030E016EEE0EF66E81
:0E0C0A00090EF76E000EF86ECBEC02F0120031
:0209EE00000007
:0B09F0002668756D69646974793D002C
:0809FB0026736D6F6B653D0072
:020A03007C0174
:030A05000D0A00D7
:050A080026636F3D00B4
:070A0D002674656D703D00C9
:080A140073657269616C3D001D
:050A1C000D0A0D0A00A7
:0E0A210041542B4349504D55583D310D0A00AC
:0E0A2F0041542B43574D4F44453D330D0A00B3
:070A3D00415445300D0A0091
:100A4400504F5354202F6170692F73656E736F720A
:100A54002F646174612F61646420485454502F31B1
:100A64002E310D0A436F6E74656E742D5479706562
:100A74003A206170706C69636174696F6E2F782DB0
:100A84007777772D666F726D2D75726C656E636FF7
:100A94006465640D0A486F73743A206D79686F6DEC
:100AA400652E65736F667461732E636F6D0D0A55E1
:100AB4007365722D4167656E743A746573740D0ABB
:100AC4004163636570743A20746578742F68746D3B
:100AD4006C0D0A436F6E74656E742D4C656E67748D
:100AE400683A2034300D0A0D0A73657269616C3DF1
:100AF400312674656D703D3126636F3D3126736D0B
:100B04006F6B653D312668756D69646974793D362E
:020B14003900A6
:100B160041542B43495053544152543D302C225496
:100B26004350222C226D79686F6D652E65736F6652
:0E0B36007461732E636F6D222C38300D0A002F
:0E0B440041542B43495053454E443D302C0044
:030B52000D0A0089
:100B5500504F5354202F6170692F73656E736F72F8
:100B65002F646174612F61646420485454502F319F
:100B75002E310D0A436F6E74656E742D5479706550
:100B85003A206170706C69636174696F6E2F782D9E
:100B95007777772D666F726D2D75726C656E636FE5
:100BA5006465640D0A486F73743A206D79686F6DDA
:100BB500652E65736F667461732E636F6D0D0A55CF
:100BC5007365722D4167656E743A746573740D0AA9
:100BD5004163636570743A20746578742F68746D29
:100BE5006C0D0A436F6E74656E742D4C656E67747B
:040BF500683A20003A
:020000040030CA
:0D000100231F3CFFBF81FF0FC00FE00F4029
:00000001FF
